:10114C004A000C000000000000000000004A0002F1
:0A115C000000000000000000000089
:10004600E490006BF09000697411F0A37429F0D26B
:1000560095D294D290E4900001F01213D212154179
:1000660012154112154190006F740EF0E4FBFD7FEE
:100076000612145E12158E90006F7401F07B02E476
:10008600FD7F0F12145E121489E4FB7D017FA91215
:10009600155212152F3090FD020EBC1210C790009B
:1000A60001E0147003020955147003020EC72402FE
:1000B60070E9900000E0B401E2E4F090000DE07019
:1000C6002190006F7404F07B02E4FD7F0F12145E32
:1000D60012152F3090FDE4900000F0FBFD7FAA1270
:1000E600155290000DE0B4012190006F740CF07B66
:1000F60002E4FD7F0F12145E12152F3090FDE4907E
:100106000000F0FBFD7FAA12155290000DE0B4022C
:100116002190006F740DF07B02E4FD7F0F12145ED8
:1001260012152F3090FDE4900000F0FBFD7FAA121F
:10013600155290000DE0B4032190006F7401F07B1E
:1001460002E4FD7F0F12145E12152F3090FDE4902D
:100156000000F0FBFD7FAA12155290000DE0B404DA
:100166002190006F7406F07B02E4FD7F0F12145E8F
:1001760012152F3090FDE4900000F0FBFD7FAA12CF
:10018600155290000DE0B4052190006F740EF07BBF
:1001960002E4FD7F0F12145E12152F3090FDE490DD
:1001A6000000F0FBFD7FAA12155290000DE0B40688
:1001B6002190006F7405F07B02E4FD7F0F12145E40
:1001C60012152F3090FDE4900000F0FBFD7FAA127F
:1001D600155290000DE0B4072190006F7408F07B73
:1001E60002E4FD7F0F12145E12152F3090FDE4908D
:1001F6000000F0FBFD7FAA12155290000DE0B40836
:100206002190006F740BF07B02E4FD7F0F12145EE9
:1002160012152F3090FDE4900000F0FBFD7FAA122E
:10022600155290000DE0B4092190006F740AF07B1E
:1002360002E4FD7F0F12145E12152F3090FDE4903C
:100246000000F0FBFD7FAA12155290000DE0B40AE3
:100256002190006F7406F07B02E4FD7F0F12145E9E
:1002660012152F3090FDE4900000F0FBFD7FAA12DE
:10027600155290000DE0FF640B600AEF64256005DF
:10028600EF6435703590006AE0D3943440037429E6
:10029600F090006AE090006FF07B02E4FD7F0F12A1
:1002A600145E90006AE004F012152F3090FDE49081
:1002B6000000F0FBFD7FAA12155290000DE0B42657
:1002C6002190006F7432F07B02E4FD7F0F12145E02
:1002D60012152F3090FDE4900000F0FBFD7FAA126E
:1002E600155290000DE0B4272190006F742CF07B1E
:1002F60002E4FD7F0F12145E12152F3090FDE4907C
:100306000000F0FBFD7FAA12155290000DE0B42804
:100316002190006F742AF07B02E4FD7F0F12145EB9
:1003260012152F3090FDE4900000F0FBFD7FAA121D
:10033600155290000DE0B4292190006F742DF07BCA
:1003460002E4FD7F0F12145E12152F3090FDE4902B
:100356000000F0FBFD7FAA12155290000DE0B42AB2
:100366002190006F742FF07B02E4FD7F0F12145E64
:1003760012152F3090FDE4900000F0FBFD7FAA12CD
:10038600155290000DE0642B704190006BE004F074
:10039600E030E00F90006F7429F07B02E4FD7F0FE0
:1003A60012145E90006BE020E00F90006F7430F046
:1003B6007B02E4FD7F0F12145E12152F3090FDE4D0
:1003C600900000F0FBFD7FAA12155290000DE0B4DC
:1003D6002C2190006F7433F07B02E4FD7F0F121422
:1003E6005E12152F3090FDE4900000F0FBFD7FAA11
:1003F60012155290000DE0B42D2190006F7434F068
:100406007B02E4FD7F0F12145E12152F3090FDE47F
:10041600900000F0FBFD7FAA12155290000DE0B48B
:100426002E2190006F7429F07B02E4FD7F0F1214D9
:100436005E12152F3090FDE4900000F0FBFD7FAAC0
:1004460012155290000DE0B42F2190006F742AF01F
:100456007B02E4FD7F0F12145E12152F3090FDE42F
:10046600900000F0FBFD7FAA12155290000DE0B43B
:10047600302190006F742BF07B02E4FD7F0F121485
:100486005E12152F3090FDE4900000F0FBFD7FAA70
:1004960012155290000DE0B4312190006F742CF0CB
:1004A6007B02E4FD7F0F12145E12152F3090FDE4DF
:1004B600900000F0FBFD7FAA12155290000DE0B4EB
:1004C600322190006F7432F07B02E4FD7F0F12142C
:1004D6005E12152F3090FDE4900000F0FBFD7FAA20
:1004E60012155290000DE0B4332190006F742EF077
:1004F6007B02E4FD7F0F12145E12152F3090FDE48F
:10050600900000F0FBFD7FAA12155290000DE0FF4F
:10051600640E6009EF640F6004EFB41706900001E3
:100526007402F0EF640C703290006F740AF0E4FB12
:10053600FD7F0612145E12158E90006F7407F07B15
:1005460002E4FD7F0F12145E12152F3090FDE49029
:100556000000F0FBFD7FAA12155290000DE0640D1D
:10056600703290006F7412F0E4FBFD7F0612145E89
:1005760012158E90006F7407F07B02E4FD7F0F1258
:10058600145E12152F3090FDE4900000F0FBFD7F05
:10059600AA12155290000DE0FF64106005EF643456
:1005A6007035900069E0D3942240037411F09000F6
:1005B60069E090006FF07B02E4FD7F0F12145E90FD
:1005C6000069E004F012152F3090FDE4900000F071
:1005D600FBFD7FAA12155290000DE0641170389051
:1005E600006F7403F07B05E4FD7F0F12145E121595
:1005F6002FC295D29412158E7B337D317F31120036
:1006060003D295D29412158E3090FDE4900000F03E
:10061600FBFD7FAA12155290000DE0641270379010
:10062600006F04F07B05E4FD7F0F12145E12152F98
:10063600C295D29412158E7B327D317F3112000322
:10064600D295D29412158E3090FDE4900000F0FB06
:10065600FD7FAA12155290000DE0641B70389000C1
:100666006F740DF07B05E4FD7F0F12145E12152FDB
:10067600C295D29412158E7B387D317F31120003DC
:10068600D295D29412158E3090FDE4900000F0FBC6
:10069600FD7FAA12155290000DE0641D703890007F
:1006A6006F740BF07B05E4FD7F0F12145E12152F9D
:1006B600C295D29412158E7B377D317F311200039D
:1006C600D295D29412158E3090FDE4900000F0FB86
:1006D600FD7FAA12155290000DE0641C7038900040
:1006E6006F7409F07B05E4FD7F0F12145E12152F5F
:1006F600C295D29412158E7B367D317F311200035E
:10070600D295D29412158E3090FDE4900000F0FB45
:10071600FD7FAA12155290000DE0642470379000F8
:100726006F7405F0FBE4FD7F0F12145E12152FC2E5
:1007360095D29412158E7B347D317F31120003D20F
:1007460095D29412158E3090FDE4900000F0FBFDDA
:100756007FAA12155290000DE06421703890006F48
:100766007407F07B05E4FD7F0F12145E12152FC28D
:1007760095D29412158E7B357D317F31120003D2CE
:1007860095D29412158E3090FDE4900000F0FBFD9A
:100796007FAA12155290000DE0641A703890006F0F
:1007A6007404F07B05E4FD7F0F12145E12152FC250
:1007B60095D29412158E7B337D317F30120003D291
:1007C60095D29412158E3090FDE4900000F0FBFD5A
:1007D6007FAA12155290000DE06419703890006FD0
:1007E6007402F07B05E4FD7F0F12145E12152FC212
:1007F60095D29412158E7B327D317F30120003D252
:1008060095D29412158E3090FDE4900000F0FBFD19
:100816007FAA12155290000DE0641E703890006F8A
:10082600740EF07B05E4FD7F0F12145E12152FC2C5
:1008360095D29412158E7B387D317F30120003D20B
:1008460095D29412158E3090FDE4900000F0FBFDD9
:100856007FAA12155290000DE06420703890006F48
:10086600740CF07B05E4FD7F0F12145E12152FC287
:1008760095D29412158E7B377D317F30120003D2CC
:1008860095D29412158E3090FDE4900000F0FBFD99
:100896007FAA12155290000DE0641F703890006F09
:1008A600740AF07B05E4FD7F0F12145E12152FC249
:1008B60095D29412158E7B367D317F30120003D28D
:1008C60095D29412158E3090FDE4900000F0FBFD59
:1008D6007FAA12155290000DE06423703890006FC5
:1008E6007406F07B05E4FD7F0F12145E12152FC20D
:1008F60095D29412158E7B347D317F30120003D24F
:1009060095D29412158E3090FDE4900000F0FBFD18
:100916007FAA12155290000DE064226003020EBCFD
:1009260090006F7408F07B05E4FD7F0F12145E12D1
:10093600152FC295D29412158E7B357D317F3012DC
:100946000003D295D29412158E3090FD020EA0901F
:100956000000E0640160030200A1F090000DE06475
:10096600186003020EA790006F7427F07B02E4FD67
:100976007F0F12145E12152F3090FDE4FBFD7FAA47
:10098600121552900000E0B401F9E4F090000DE079
:10099600701890006F7404F07B02E4FD7F0F121450
:1009A6005E12152F3090FD020EA090000DE064013E
:1009B600701890006F740CF07B02E4FD7F0F121428
:1009C6005E12152F3090FD020EA090000DE064021D
:1009D600701890006F740DF07B02E4FD7F0F121407
:1009E6005E12152F3090FD020EA090000DE06403FC
:1009F600701790006F04F07B02E4FD7F0F12145E07
:100A060012152F3090FD020EA090000DE0640470C8
:100A16001890006F7406F07B02E4FD7F0F12145EDF
:100A260012152F3090FD020EA090000DE0640570A7
:100A36001890006F740EF07B02E4FD7F0F12145EB7
:100A460012152F3090FD020EA090000DE064067086
:100A56001890006F7405F07B02E4FD7F0F12145EA0
:100A660012152F3090FD020EA090000DE064077065
:100A76001890006F7408F07B02E4FD7F0F12145E7D
:100A860012152F3090FD020EA090000DE064087044
:100A96001890006F740BF07B02E4FD7F0F12145E5A
:100AA60012152F3090FD020EA090000DE064097023
:100AB6001890006F740AF07B02E4FD7F0F12145E3B
:100AC60012152F3090FD020EA090000DE0640A7002
:100AD6001890006F7406F07B02E4FD7F0F12145E1F
:100AE60012152F3090FD020EA090000DE0640B70E1
:100AF6001890006F7426F07B02E4FD7F0F12145EDF
:100B060012152F3090FD020EA090000DE0640C70BF
:100B16002990006F740AF0E4FBFD7F0612145E1242
:100B2600158E90006F7407F07B02E4FD7F0F1214A0
:100B36005E12152F3090FD020EA090000DE0640DA0
:100B4600702990006F7412F0E4FBFD7F0612145EAC
:100B560012158E90006F7407F07B02E4FD7F0F1272
:100B6600145E12152F3090FD020EA090000DE06469
:100B7600107029900069E004F0E0D39422400374D9
:100B860011F0900069E090006FF07B02E4FD7F0FAA
:100B960012145E12152F3090FD020EA090000DE08B
:100BA6006411702F90006F7403F07B05E4FD7F0FD6
:100BB60012145E12152FC295D29412158E7B337DB8
:100BC600317F31120003D295D29412158E3090FDEA
:100BD600020EA090000DE06412702E90006F04F0DB
:100BE6007B05E4FD7F0F12145E12152FC295D29479
:100BF60012158E7B327D317F31120003D295D2944D
:100C060012158E3090FD020EA090000DE0641B7050
:100C16002F90006F740DF07B05E4FD7F0F12145EBC
:100C260012152FC295D29412158E7B387D317F31E5
:100C3600120003D295D29412158E3090FD020EA0AA
:100C460090000DE0641D702F90006F740BF07B0513
:100C5600E4FD7F0F12145E12152FC295D294121561
:100C66008E7B377D317F31120003D295D2941215D7
:100C76008E3090FD020EA090000DE0641C702F9047
:100C8600006F7409F07B05E4FD7F0F12145E1215E8
:100C96002FC295D29412158E7B367D317F3112008C
:100CA60003D295D29412158E3090FD020EA09000BC
:100CB6000DE06424702E90006F7405F0FBE4FD7F58
:100CC6000F12145E12152FC295D29412158E7B3414
:100CD6007D317F31120003D295D29412158E309059
:100CE600FD020EA090000DE06421702F90006F743D
:100CF60007F07B05E4FD7F0F12145E12152FC295D7
:100D0600D29412158E7B357D317F31120003D29538
:100D1600D29412158E3090FD020EA090000DE06464
:100D26001A702F90006F7404F07B05E4FD7F0F129C
:100D3600145E12152FC295D29412158E7B337D3117
:100D46007F30120003D295D29412158E3090FD0298
:100D56000EA090000DE06419702F90006F7402F0E1
:100D66007B05E4FD7F0F12145E12152FC295D294F7
:100D760012158E7B327D317F30120003D295D294CC
:100D860012158E3090FD020EA090000DE0641E70CC
:100D96002F90006F740EF07B05E4FD7F0F12145E3A
:100DA60012152FC295D29412158E7B387D317F3065
:100DB600120003D295D29412158E3090FD020EA029
:100DC60090000DE06420702F90006F740CF07B058E
:100DD600E4FD7F0F12145E12152FC295D2941215E0
:100DE6008E7B377D317F30120003D295D294121557
:100DF6008E3090FD020EA090000DE0641F702E90C4
:100E0600006F740AF07B05E4FD7F0F12145E121565
:100E16002FC295D29412158E7B367D317F3012000B
:100E260003D295D29412158E3090FD806D90000DF0
:100E3600E06423702E90006F7406F07B05E4FD7F5E
:100E46000F12145E12152FC295D29412158E7B3492
:100E56007D317F30120003D295D29412158E3090D8
:100E6600FD803790000DE0642260030200A190002F
:100E76006F7408F07B05E4FD7F0F12145E12152FC8
:100E8600C295D29412158E7B357D317F30120003C8
:100E9600D295D29412158E3090FDE4900000F08029
:100EA6001690006F7428F07B02E4FD7F0F12145E2B
:100EB60012152F3090FDE4FBFD7FAA121552020099
:100EC600A17F061214F2121562900068EFF09000EE
:100ED6006FF07B06E4FD7F0F12145E12152F7F055F
:100EE6001214F2121562900068EFF03090FD900037
:100EF60068E090006FF07B08E4FD7F0F12145E122D
:100F0600152F7F041214F2121562900068EFF0306C
:100F160090FD900068E090006FF07B09E4FD7F0F84
:100F260012145E12152F7F031214F212156290002E
:100F360068EFF03090FD900068E090006FF07B075E
:100F4600E4FD7F0F12145E12152F7F021214F212A7
:100F56001562900068EFF070037418F03090FD9001
:100F66000068E090006FF07B0AE4FD7F0F12145ECC
:100F760012152F7F011214F2121562900068EFF01D
:100F86007003743CF03090FD900068E090006FF0C4
:100F96007B0BE4FD7F0F12145E12152F3090FD902F
:100FA600006F74A9F07B01E4FD7F0F12145E121529
:100FB6002F7F111214F2900068EFF03090FD900030
:100FC60068E0D3947F403090006F74B4F07B01E406
:100FD600FD7F0F12145E12152F3090FD900068E011
:100FE600F40490006FF07B01E4FD7F0F12145E1293
:100FF600152F20901980FB900068E090006FF07B21
:1010060001E4FD7F0F12145E12152F3090FD900043
:101016006F74AAF07B01E4FD7F0F12145E12152F88
:101026003090FDE4FBFD7FAA121552E4900000F01B
:05103600A3F00200A17F
:030023000212E8DE
:0812E800C0E0C083C082C0D049
:1012F000309830C298900066E0240CF582E4340007
:10130000F583E599F0900066E004F0E02409F582A9
:10131000E43400F583E0B45A0A900066E4F09000EB
:031320000004F0D6
:09132300D0D0D082D083D0E0329A
:0300430002002692
:06002600C0E0C083C082AF
:0E002C00E59A30E009539AFE900067E59BF0DC
:07003A00D082D083D0E03238
:0D1580007F057E597DF7DDFEDEFADFF60007
:01158D00223B
:0D158E007FFE7EE57D08DDFEDEFADFF60063
:01159B00222D
:101541007FBB7ED97D35DDFEDEFADFF67F02DFFE71
:011551002277
:10152F007FF97EDC7DA0DDFEDEFADFF67F0EDFFECB
:01153F0000AB
:011540002288
:101166004A0020000000000000000000004A0016AF
:0A117600000000000000000000006F
:0B11CF00900070EBF0A3EAF0A3E9F041
:1011DA00E4A3F0A3F0FCECC39D5024900070E0FB64
:1011EA00A3E0FAA3E0F98C8275830012124CFF90F7
:1011FA000074E02FF0900073E03400F00C80D79078
:10120A000073E0FEA3E0FFC3E49FFFE49E90007337
:10121A00F0A3EFF0900073E0FF900070E0FBA3E012
:10122A00FAA3E0F98C82758300EF121279900073A9
:10123A00A3E0FFEC7C0029F9EC3AFA900001EF02F6
:02124A00127917
:05132C00900070EFF0DD
:10133100E4A3F07F7E1215AAE4900071F090007092
:10134100E0FFA3E0FEC39F501774162EF582E4342C
:1013510000F583E0FF1215AA900071E004F080DD32
:051361007FEF0215AA58
:10145E0090001674FFF0A37406F0A3EFF0A3EDF066
:10146E00A3EBF090006FE090001BF07B017A007907
:0B147E00167D061211CF7F0802132C10
:101180004A0034000000000000000000004A002A6D
:0A1190000000000000000000000055
:1010C70020A65A12158020A60E900001E004F0E039
:1010D700D394014002E4F030A6FD900001E07015C2
:1010E70090006F7423F07B02E4FD7F0F12145E12F1
:1010F700152F3090FD900001E0B4011590006F743A
:1011070024F07B02E4FD7F0F12145E12152F30903E
:10111700FDE4900000F0FBFD7FAA12155220A524E4
:1011270012158020A5069000017402F030A6FD90EC
:10113700006F74A8F07B01E4FD7F0F12145E121597
:051147002F3090FD2295
:10119A004A0048000000000000000000004A003E2B
:0A11AA00000000000000000000003B
:101489007BA07DA07FA012155212158E7B057D10C1
:101499007FA112155212158E7B247D227FA212156F
:0414A9005202158E48
:0514040090006CEFF008
:10140900E4A3F0F090006CE0FFA3E0FEC39F501747
:10141900743E2EF582E43400F583E0FF1215BF9087
:07142900006DE004F080DD1E
:011430002299
:1015520090003EEFF0A3EDF0A3EBF07F0302140442
:1011B4004A005C000000000000000000004A0052E9
:0A11C4000000000000000000000021
:0514310090006CEFF0DB
:10143600E4A3F0F090006CE0FFA3E0FEC39F50171A
:1014460074522EF582E43400F583E0FF1215AA905B
:07145600006DE004F080DDF1
:01145D00226C
:100003009000527455F0A37453F0A3EFF0A3EDF0F6
:10001300A3EBF0A3747EF0A37466F07F07021431A0
:0815BF008F993099FDC29922B9
:0B15AA008F9BE59A30E1FB539AFD2275
:1013D20053877F759850438E40538EFE53890F4337
:1013E2008920758BDC758DDCC2ABD28E538EF7757E
:1013F2009A50438E04759CB8438E10D2AFD2ACD2B1
:021402009C222A
:0F156200EFC4540F75F00AA4FEEF540F2EFF22B2
:0814D100AD0612139EA3E0FF1B
:1014D900EF75F06484E5F075F00A84C454F0FEEF0A
:0914E90075F00A84E5F04EFF22C3
:0715C7000000007F18DFFEA9
:0115CE0022FA
:0F157100D2A3D2A41215C7C2A31215C7C2A422B7
:0A15B500C2A3D2A41215C7D2A322CC
:02136600AE07D0
:10136800E4FDEEA805088002C333D8FC30E704D2B8
:10137800A38002C2A3D2A41215C7C2A40DEDB4085B
:10138800E1D2A3D2A41215C730A304C2008002D2AE
:0613980000C2A40215C70B
:1014AD00E4FED2A3FDC2A41215C7D2A41215C7EE35
:1014BD0025E0FE30A3010E1215C70DEDB408E6C2EE
:0314CD00A4AF06C3
:0114D00022F9
:0E159C00A20192A3D2A41215C7C2A40215C7C1
:10139E00AC05AB071215717FD01213662000037FC8
:1013AE000022AF031213662000037F0022AF041247
:1013BE0013662000037F00221215B51215C71215F1
:0413CE00C77F0122B2
:101511001215717FD11213662000037F002212146D
:0D152100ADAE07D20112159C1215B5AF0634
:01152E00229A
:1014F200AC071215717FD01213662000037F002201
:0F150200AF041213662000037F0022121511227E
:04129B00AA03A905F4
:10129F00E4FE1214D9AE07AD067F0612139EAF01FE
:1012AF001214D9AE07AD067F0512139EAF021214AA
:1012BF00D9AE07AD067F0412139E900078E0FF129F
:1012CF0014D9AE077F021214D1AE077F011214D1C9
:0912DF00AE07AD07E4FF02139E07
:0300000002103BB0
:0C103B00787FE4F6D8FD75812002108259
:10124C00BB010CE58229F582E5833AF583E0225057
:10125C0006E92582F8E622BBFE06E92582F8E222A1
:0D126C00E58229F582E5833AF583E49322BB
:10127900F8BB010DE58229F582E5833AF583E8F0AB
:10128900225006E92582C8F622BBFE05E92582C857
:02129900F2223F
:10104700020046E493A3F8E493A34003F68001F279
:1010570008DFF48029E493A3F85407240CC8C333AA
:10106700C4540F4420C8834004F456800146F6DF79
:10107700E4800B010204081020408090114CE47EAC
:10108700019360BCA3FF543F30E509541FFEE4936E
:10109700A360010ECF54C025E060A840B8E493A335
:1010A700FAE493A3F8E493A3C8C582C8CAC583CA60
:1010B700F0A3C8C582C8CAC583CADFE9DEE780BE18
:0111CE000020
:00000001FF
