:03000000020F529A
:0C0F5200787FE4F6D8FD758173020F99DA
:1013330053455420414C41524D005345542053557D
:1013430043434553530043414E43454C2053554378
:05135300434553530067
:10115600093820203A20203A2020000B1332302074
:10116600202D20202D202000164C4D4F4E54554545
:1011760057454454485546524953415453554E00D9
:10118600042A202020000A1E0000000000000000A3
:0E11960000000A2E0000000000000000000013
:1013910053877F759850438E04759CB8438E0143E3
:0913A1008E10D2ACD29CD2AF2216
:04130E007F0A7E00D4
:10131200EF1FAA0670011E4A60167C007D64D3EDA1
:101322009400EC6480948040E7ED1D70F11C80EE27
:011332002298
:10122900E50BC4540F2430F53BE50B540F2430F57E
:0D1239003C7FC3121246AF3B1212107FC45F
:10124600C294C2968F807F057E00121312D2967FBB
:09125600057E00121312C296225B
:1011EE00E50AC4540F2430F53EE50A540F2430F5B9
:1011FE003F7FC6121246AF3E1212107FC712124622
:02120E00AF3FF0
:10121000D294C2968F807F057E00121312D2967FE1
:09122000057E00121312C2962291
:1013C300C295C2967F381212467F0C1212467F06D0
:0813D3001212467F01021246CE
:0613AA00C2B2C2B4D2B2CF
:1013B000E4FEEF1392B3C2B4D2B4EFC313FF0EBE78
:0213C00008F033
:0113C2002208
:0D13DB001213AAAF051213B0D2B4C2B22291
:100003001213AAE4FF30B303430580D2B4C2B4EDA4
:0D001300C313FD0FBF08EED2B4C2B2AF059B
:0100200022BD
:0612BE008B698A6A896B4E
:1012C400756C81E4FCAF6C120003AB69AA6AA96B6C
:1012D4008C82758300EF120AAD056C056C0CBC079B
:0112E400E425
:0112E50022E6
:10129500756880E4FD7F8E1213DB7C07120A94FDCE
:1012A500AF681213DB740129F9E43AFA0568056899
:0912B500DCEA7D807F8E0213DB70
:101104007F811200038F11E51130E745E4FD7F8EE6
:101114001213DB7DA57F901213DBE4FD7F80121395
:10112400DB7D597F821213DB7D107F841213DB7DFC
:10113400077F861213DB7D057F881213DB1D7F8AF0
:101144001213DB7D147F8C1213DB7D807F8E1213D0
:02115400DB229C
:0A104500FC7D0A120ACFAE04AF05CD
:10104F007D30EE7051EFB40A00504B901061F828CC
:10105F00287302107F02108302108702108B021078
:10106F008F02109302109702109B02109F0210A381
:10107F007D3080227D31801E7D32801A7D33801637
:10108F007D3480127D35800E7D36800A7D37800657
:08109F007D3880027D39AF05A8
:0110A7002226
:100B8C007B007A00790A1212BEE50AC4540F243095
:100B9C00F53EE50A540F2430F53FE50BC4540F2401
:100BAC0030F53BE50B540F2430F53CE50CC4540FE9
:100BBC002430F538E50C540F2430F539E50DC454C8
:100BCC000F2430F51BE50D540F2430F51CE50EC435
:100BDC00540F2430F518E50E540F2430F519E51098
:100BEC00C4540F2430F515E510540F2430F516E5D8
:100BFC000F75F003A4244CF8E6F52AE50F75F00305
:100C0C00A4244DF8E6F52BE50F75F003A4244EF85B
:100C1C00E6F52CE50F75F00A84E5F075F003A46495
:100C2C001545F07009854C2A854D2B854E2C7F80FF
:100C3C001212467F201212107F81121246E4F549DF
:100C4C00F54A7413254AF8E6FF121210054AE54AD4
:100C5C0070020549C3940AE5496480948040E37F9F
:100C6C0020121210E4F549F54A742A254AF8E6FFD9
:100C7C00121210054AE54A70020549C39403E5496E
:100C8C006480948040E37FC0121246E4F549F54A33
:100C9C007438254AF8E6FF121210054AE54A70022C
:100CAC000549C39408E5496480948040E37FC812E9
:100CBC001246120D7E8E438F447C037DE8120ACFC0
:100CCC00EF2430F566AE43AF447C037DE8120ACFC7
:100CDC007E007F64CFCDCFCECCCE120ACFEF2430A6
:100CEC00FBAE43AF447C007D64120ACF7E007F0ACA
:100CFC00CFCDCFCECCCE120ACFEF2430F567AE439A
:100D0C00AF447C007D64120ACF7E007F0ACFCDCF2A
:100D1C00CECCCE120ACFED2430F9E5426401454128
:100D2C007019756820E566B43008756620BB300212
:100D3C007B20AF68121210AF66801675682D7F206D
:100D4C00121210BB30097F20121210AF688007AF4F
:100D5C0068121210AF03121210AF671212107F2E0E
:100D6C00121210AF011212107FDF1212107F430209
:020D7C00121053
:0611A500AB078D828C8374
:1011AB007C007D0AAF82AE83120ACF8E688F69AE48
:1011BB0083AF827C007D0A120ACF8C6A8D6BAF03E2
:1011CB00121246AF69AE6812104F121210EB04FFE9
:1011DB00121246AF6BAE6A12104F121210EB04FFD5
:0311EB00021246A7
:100FDE00E509450870607F011212467F83121246A2
:100FEE00E4FBEB90133393FF1212100BBB09F3AD1E
:100FFE0048AC477FC51211A57FC71212467F3A1221
:10100E001210AD46AC457FC81211A5E56545647F4B
:10101E00CD60111212467F201212107F4F12121045
:10102E007F4E800F1212467F4F1212107F46121201
:06103E00107F46121210A3
:011044002289
:1000260030A3030200CA12130E30A3030200CA3023
:10003600A3FD12130E30A3FDE50945086003020077
:10004600CA0529E529700205287D807F801213DB09
:10005600E52964084528701B7F0C121246E4FD7FD3
:10006600801213DB7B007A00790A121295E4F528D8
:10007600F52922E5287048E52914B4070050409078
:10008600009375F003A4C58325F0C583730200A809
:100096000200AC0200B00200B40200B80200BC02CA
:1000A60000C07FC780167FC480127FC1800E7F8EFE
:1000B600800A7F8A80067F8780027F841212467FAD
:1000C6000F12124630A1030203E412130E30A103ED
:1000D6000203E430A1FD12130E30A1FDE5294528E7
:1000E6007003020354E5286003020354E52914B49F
:1000F6000700400302035490010B75F003A4C58367
:1001060025F0C5837302012002015A0201990201FA
:10011600DD02025102029D0202D8050AE50AB45A1E
:1001260003E4F50AE50AB44A03750A50E50AB43A47
:1001360003750A40E50AB42A03750A30E50AB41ABB
:1001460003750A20E50AB40A03750A101211EE7F38
:10015600C7020351050BE50BB45A03E4F50BE50B97
:10016600B44A03750B50E50BB43A03750B40E50B27
:10017600B42A03750B30E50BB41A03750B20E50B97
:10018600B40A03750B10121229AF3C1212107FC469
:10019600020351050CE50CB42403E4F50CE50CB49C
:1001A6001A03750C20E50CB40A03750C10E50CC493
:1001B600540F2430F538E50C540F2430F5397FC040
:1001C600121246AF381212107FC1121246AF391200
:1001D60012107FC1020351050FE50FB40803750F16
:1001E60001E50F75F00A84ADF0ED75F003A4641512
:1001F60045F0700B854C2A854D2B854E2C8029E5C4
:100206000F75F00A84AFF0EF75F003A4244CF8E6FE
:10021600F52AEF75F003A4244DF8E6F52BED75F0FD
:1002260003A4244EF8E6F52C7F8C121246AF2A1250
:1002360012107F8D121246AF2B1212107F8E1212E1
:1002460046AF2C1212107F8E020351050DE50DB438
:100256003203750D01E50DB42A03750D30E50DB4B5
:100266001A03750D20E50DB40A03750D10E50DC4CE
:10027600540F2430F51BE50D540F2430F51C7F89EF
:10028600121246AF1B1212107F8A121246AF1C12B0
:1002960012107F8A020351050EE50EB41303750E84
:1002A60001E50EB40A03750E10E50EC4540F243092
:1002B600F518E50E540F2430F5197F86121246AF55
:1002C600181212107F87121246AF191212107F876A
:1002D60080790510E510B49A03E4F510E510B48AA8
:1002E60003751090E510B47A03751080E510B46AB2
:1002F60003751070E510B45A03751060E510B44A22
:1003060003751050E510B43A03751040E510B42A91
:1003160003751030E510B41A03751020E510B40A01
:1003260003751010E510C4540F2430F515E510546C
:100336000F2430F5167F83121246AF151212107F66
:1003460084121246AF161212107F84121246E50965
:10035600450870030203E4E50860030203E4E509C7
:1003660024FE604514605C24027073E56545647084
:1003760018F5647565017FCD1212467F20121210A2
:100386007F4F1212107F4E8016E4F564F5657FCD1F
:100396001212467F4F1212107F461212107F46121B
:1003A60012107FCF12124680350546E546700205CB
:1003B60045643C45457004F545F546AD46AC457F7C
:1003C600C880180548E54870020547641845477017
:1003D60004F547F548AD48AC477FC51211A530A2D4
:1003E600030206FF12130E30A2030206FF30A2FD1F
:1003F60012130E30A2FDE52945287003020662E5B8
:10040600286003020662E52914B4070040030206C9
:100416006290042575F003A4C58325F0C583730295
:10042600043A0204740204B30204F70205670205E3
:10043600AF0205E6150AE50AB4FF03750A59E50A8F
:10044600B44F03750A49E50AB43F03750A39E50A4C
:10045600B42F03750A29E50AB41F03750A19E50ABC
:10046600B40F03750A091211EE7FC702065F150B5A
:10047600E50BB4FF03750B59E50BB44F03750B4938
:10048600E50BB43F03750B39E50BB42F03750B2948
:10049600E50BB41F03750B19E50BB40F03750B09B8
:1004A600121229AF3C1212107FC402065F150CE52A
:1004B6000CB4FF03750C23E50CB41F03750C19E58A
:1004C6000CB40F03750C09E50CC4540F2430F53831
:1004D600E50C540F2430F5397FC0121246AF38129E
:1004E60012107FC1121246AF391212107FC10206D6
:1004F6005FD50F03750F07E50F75F00A84ADF0EDB4
:1005060075F003A4641545F0700B854C2A854D2BB8
:10051600854E2C8029E50F75F00A84AFF0EF75F053
:1005260003A4244CF8E6F52AEF75F003A4244DF84D
:10053600E6F52BED75F003A4244EF8E6F52C7F8C3A
:10054600121246AF2A1212107F8D121246AF2B12CC
:1005560012107F8E121246AF2C1212107F8E0206D8
:100566005FD50D03750D31E50DB42F03750D29E526
:100576000DB41F03750D19E50DB40F03750D09E5CF
:100586000DC4540F2430F51BE50D540F2430F51C13
:100596007F89121246AF1B1212107F8A121246AFC3
:1005A6001C1212107F8A02065FD50E03750E12E525
:1005B6000EB40F03750E09E50EC4540F2430F5185A
:1005C600E50E540F2430F5197F86121246AF181225
:1005D60012107F87121246AF191212107F87807988
:1005E6001510E510B4FF03751099E510B48F037567
:1005F6001089E510B47F03751079E510B46F0375A3
:100606001069E510B45F03751059E510B44F037512
:100616001049E510B43F03751039E510B42F037582
:100626001029E510B41F03751019E510B40F0375F2
:100636001009E510C4540F2430F515E510540F24A5
:1006460030F5167F83121246AF151212107F8412F0
:100656001246AF161212107F84121246E50945089B
:1006660070030206FFE50860030206FFE50924FEA3
:100676006048146064240260030206FFE565456471
:100686007018F5647565017FCD1212467F2012122F
:10069600107F4F1212107F4E8016E4F564F5657FC9
:1006A600CD1212467F4F1212107F461212107F464D
:1006B6001212107FCF121246803FE5461546700291
:1006C6001545C3E54564809480500675450075461A
:1006D6003BAD46AC457FC8801DE548154870021500
:1006E60047C3E547648094805006754700754817F0
:1006F600AD48AC477FC51211A530A0030207D6123C
:10070600130E30A0030207D630A0FD12130E30A040
:10071600FDE529452860030207D6120FDE0509E527
:1007260009700205086404450860030207B3F5086A
:10073600F5097F011212467F0C121246E5654564E3
:1007460060317F82121246E4F566F567743D2567CF
:10075600F58274133566F583E493FF12121005676C
:10076600E56770020566C3940BE566648094804075
:10077600DB802F7F81121246E4F566F56774492502
:1007860067F58274133566F583E493FF121210053C
:1007960067E56770020566C3940EE566648094801B
:1007A60040DB7FD07E071213127F018020E50870A0
:1007B6001AE50924FE600B14600C2402700D7FCF2D
:1007C60080067FC980027FC61212467F0F1212462C
:0107D6002200
:1010A800AE47AF487C007D0A120ACF12104FEF6599
:1010B800387041AE47AF48121045EF65397035AE0C
:1010C80045AF46FC7D0A120ACF12104FEF653B7000
:1010D80023AE45AF46121045EFB53C187562007552
:1010E8006301C2917FFA7E00121312D2917FFA7EB9
:0C10F80000021312E4F562F563D29122AD
:0B13E800EF1FAC0670011E4C70F622D7
:1012E600E4FDD2907F50FE1213E8C2907F207E0369
:1012F6001213E8D2907F8C7E001213E8A290E4339A
:08130600FD7FC87E000213E820
:10135800E4FB7D08C290EBC313FBD29030900343AB
:0D13680003807F287E001213E8DDE9AF034B
:011375002255
:02137600AD07C1
:101378007B08C290ED1392907F327E001213E8D260
:0813880090EDA2E713FDDBEA82
:01139000223A
:100D7E001212E67FCC1213767F441213761212E60D
:100D8E007FCC1213767FBE1213761213588F691210
:100D9E0013588F6AE48F6EF56DF56CF56BAF6EAE12
:100DAE006DAD6CAC6B7808120B248F6E8E6D8D6CE6
:100DBE008C6BE569456EF56EE56DF56DE56CF56C64
:100DCE00E56BF56BE4FF7EF8FDFCAB6EAA6DA96CCE
:100DDE00A86BC3120B134035E4F541F542E569F4F7
:100DEE00FFBFFF0BE56AF404F56AE4F5698007635B
:100DFE006AFFEF04F569E56AFE7C00E42569FFEC05
:100E0E003EFEE48F6E8E6DF56CF56B8006754100BF
:100E1E00754201AF6EAE6DAD6CAC6BE41209D5E4EC
:100E2E00FBFA7980783D1208CF8F728E718D708C9F
:100E3E006FE4FFFE7D207C41AB72AA71A970A86F92
:100E4E001208CFE542640145417007FBFAF9783F7D
:0E0E5E008006E4FBFAF978BF1207DE120A13D1
:010E6C002263
:100E6D001213C3121104121391C2B5C2B6C2B7E563
:100E7D0065456460031210A8120026E52945287007
:100E8D0009E50945087003120B8CE512B401E0E485
:100E9D00F512E530B43007E532B43202D2A4E530B4
:100EAD00B43107E532B43202C2A4E530B43007E5FF
:100EBD0032B43302D2A5E530B43107E532B4330292
:100ECD00C2A5E530B43007E532B43402D2A6E53020
:100EDD00B43107E532B43402C2A6E530B43007E5CB
:100EED0032B43502D2A7E530B43107E532B435025C
:100EFD00C2A7E530B43007E532B43602C2B5E530ED
:100F0D00B43107E532B43602D2B5E530B43007E579
:100F1D0032B43702C2B6E530B43107E532B4370228
:100F2D00D2B6E530B43007E532B43802C2B7E53099
:100F3D0064316003020E7CE53264386003020E7C7E
:050F4D00D2B7020E7C8A
:0300230002125F67
:09125F00C0E0C0D075D000C00051
:10126800309823C298742E2573F8A69905737428AC
:101278002573F8E6B4530F74272573F8E6B45506BA
:06128800757300751201F0
:07128E00D000D0D0D0E03207
:1007D700020A7FE86480F8E933E83360110460F0C7
:1007E700ED33EC337009E8FCE9FDEAFEEBFF220488
:1007F70060DED3EB9FEA9EE99DE8C2E78CF0C2F783
:1008070095F0400CE8CCF8E9CDF9EACEFAEBCFFB4E
:10081700120A4A85D0F05804700320D5B3E8047053
:10082700075002B2D5020A8992D5EC0460F7E4CCEE
:10083700C0E0C398F8603B94186008400DD0E0FB17
:10084700020A61E4FBFAC9FC8028E830E406E4C93F
:10085700FBE4CAFCE830E305E4C9CACBFCE854076B
:100867006010F8C3E913F9EA13FAEB13FBEC13FC76
:10087700D8F130F52FC3E49CFCEF9BFFEE9AFEED19
:1008870099FDD0E0FBEF4E4D4C701222DB03020ABC
:1008970086EC2CFCEF33FFEE33FEED33FDED30E756
:1008A700EB020A61EF2BFFEE3AFEED39FDD0E0FBDC
:1008B70050130BBB0003020A89ED13FDEE13FEEF85
:0808C70013FFEC13FC020A61AF
:1008CF00EC4D6011E8497017ED33EC3304600DE423
:1008DF00FCFFFEFD22E933E8330470F8020A7F12B1
:1008EF000A4A58046009E4CC2481500628500902B2
:1008FF000A89284003020A86C0E0EB4A7044B98097
:10090F0006D0E0FB020A75EF4E701CBD8008EBFFAE
:10091F00EAFEE9FD80EBE98DF0A4FEE5F00209B8EF
:10092F00E9CDF9EAFEEBFFEF89F0A4FCE5F0CE8903
:10093F00F0A42EFFE435F0CD89F0A42DFEE435F0C0
:10094F008067EF4E7005BD80D780C3EF8BF0A4ACEE
:10095F00F0EE8BF0A42CFCE435F0F8EF8AF0A42C29
:10096F00E5F038FCE433CB8DF0A42CFCE5F03BF83C
:10097F00EE8AF0A42CFCE5F038F8E433CF89F0A42C
:10098F002CFCE5F038CF3400CE89F0A42FFFE5F032
:10099F003EFEE433C98DF0A42EFEE5F039CD8AF08A
:1009AF00A42FFFE5F03EFEE43DFD33D0E0FB500702
:1009BF000BBB000F020A89EC2CFCEF33FFEE33FE6A
:0609CF00ED33FD020A6198
:1009D50075F020800E75F010800575F0087D007E9D
:1009E500007F003392D530D503120B05EC33401050
:1009F500EF33FFEE33FEED33FDEC33FCD5F0ED22A6
:0E0A0500E5F0247EA2D513CC92E7CDCEFF22E1
:100A1300EDD2E7CD33EC3392D524814006E4FFFEDB
:100A2300FDFC22FCE4CFCECDCC24E0501174FF803A
:100A3300EDC3CC13CCCD13CDCE13CECF13CF0470D7
:070A4300F030D5DE020B05C7
:100A4A00E9D2E7C933E833F892D5EDD2E7CD33ECF2
:070A5A0033FC5002B2D5226B
:100A6100EC30E7100FBF000C0EBE00080DBD0004F6
:100A71000BEB6014A2D5EB13FCED92E7FD2274FFA2
:100A8100FCFDFEFF22E480F8A2D574FF13FC7D80FB
:030A9100E480EF0F
:100F5E00020E6DE493A3F8E493A34003F68001F22E
:100F6E0008DFF48029E493A3F85407240CC8C33394
:100F7E00C4540F4420C8834004F456800146F6DF63
:100F8E00E4800B0102040810204080901156E47E8C
:100F9E00019360BCA3FF543F30E509541FFEE49358
:100FAE00A360010ECF54C025E060A840B8E493A31F
:100FBE00FAE493A3F8E493A3C8C582C8CAC583CA4A
:100FCE00F0A3C8C582C8CAC583CADFE9DEE780BE02
:0111A400004A
:100A9400BB010689828A83E0225002E722BBFE0260
:090AA400E32289828A83E4932293
:100AAD00F8BB010DE58229F582E5833AF583E8F07F
:100ABD00225006E92582C8F622BBFE05E92582C82B
:020ACD00F22213
:100ACF00C2D5EC30E709B2D5E4C39DFDE49CFCEE42
:100ADF0030E715B2D5E4C39FFFE49EFE120B37C378
:100AEF00E49DFDE49CFC8003120B3730D507C3E473
:060AFF009FFFE49EFE22B1
:0E0B0500C3E49FFFE49EFEE49DFDE49CFC2201
:100B1300EB9FF5F0EA9E42F0E99D42F0E89C45F038
:010B230022AF
:100B2400E8600FEFC333FFEE33FEED33FDEC33FC2F
:030B3400D8F122D3
:100B3700BC000BBE0029EF8DF084FFADF022E4CCA2
:100B4700F875F008EF2FFFEE33FEEC33FCEE9DEC6B
:100B5700984005FCEE9DFE0FD5F0E9E4CEFD22EDB1
:100B6700F8F5F0EE8420D21CFEADF075F008EF2FFB
:100B7700FFED33FD4007985006D5F0F222C398FDEC
:050B87000FD5F0EA2289
:00000001FF
